:0400000070EF00F0AD
:100008002E82E1CF03F0E2CF04F0D9CF05F0DACFAA
:1000180006F09EA612EF00F014EF00F066EF00F075
:10002800C9CF27F07A0E2718D8A41DEF00F01FEFCC
:1000380000F023EF00F0010E266E4EEF00F0790E6F
:100048002718D8A42AEF00F02CEF00F030EF00F0CA
:10005800000E266E4EEF00F04EEF00F0280E246ED4
:10006800000E256E63EF00F024C0D9FF25C0DAFF2B
:1000780027C0DFFF244A252A63EF00F024C0D9FFF8
:1000880025C0DAFF24C0E1FF25C0E2FFDFCFE7FF8C
:1000980063EF00F02650016E026A0250000AD8B4DD
:1000A80058EF00F042EF00F00150000AD8B432EFE8
:1000B80000F0010AD8B438EF00F042EF00F09E9645
:1000C800550EC96E06C0DAFF05C0D9FF04C0E2FFAD
:0C00D80003C0E1FF2E9211001FEF0CF09E
:1010000000B88802002D600200A1370200160F020E
:10101000008AE60100FFBD010073950100E86C0144
:10102000005C440100D11B010045F30000BACA0076
:10103000002EA20000A3790000175100008C2800A8
:1010400000000000003F2B00007F560000BE810022
:1010500000FEAC00003DD800007D030100BC2E0165
:1010600000FC5901003B8501007BB00100BADB01A7
:1010700000FA06020039320200795D0200B88802E7
:1010800000000A6E0A50D8A448EF08F04AEF08F0B2
:10109000C3EF08F007C008F0010E0816083A08462A
:1010A000084682500818BF0B0818826E07C008F067
:1010B000D8900832010E08160832083282500818FB
:1010C0007F0B0818826E07C008F0D8900832D890BD
:1010D0000832010E0816083A83500818EF0B08185A
:1010E000836E07C008F0D8900832D8900832D890A4
:1010F0000832010E0816083A084683500818DF0B1C
:101100000818836E07C008F0083A0F0E0816010E83
:101110000816083A0846084683500818BF0B0818F6
:10112000836E07C008F0050E096ED8900832092EAC
:1011300095EF08F0010E081608320832835008189F
:101140007F0B0818836E07C008F0060E096ED89052
:101150000832092EA7EF08F0010E08168150081872
:10116000FE0B0818816E086A07AE01D0082A010E2E
:101170000816084681500818FD0B0818816E000EED
:101180000B6E37EF09F00A28D8A4C9EF08F0CBEFAF
:1011900008F037EF09F081B2D0EF08F0D3EF08F094
:1011A000010ED4EF08F0000E0B1281B0DAEF08F058
:1011B000DEEF08F0086A082ADFEF08F0086A0B5033
:1011C0000B2408100B6E83BEE8EF08F0ECEF08F07C
:1011D000086A082AEDEF08F0086A0B500B24081083
:1011E0000B6E83BCF6EF08F0FAEF08F0086A082AE5
:1011F000FBEF08F0086A0B500B2408100B6E83BA43
:1012000004EF09F008EF09F0086A082A09EF09F06D
:10121000086A0B500B2408100B6E83B812EF09F00C
:1012200016EF09F0086A082A17EF09F0086A0B5050
:101230000B2408100B6E82BE20EF09F024EF09F09A
:10124000086A082A25EF09F0086A0B500B240810D9
:101250000B6E82BC2EEF09F032EF09F0086A082A03
:1012600033EF09F0086A0B500B2408100B6E0B507B
:101270001200959494949592939A95969394929043
:101280009398828483848382818A010ED6EC0AF04B
:10129000350EE82EFED700F0819A2A0E1A6E8E0EB9
:1012A000E82EFED71A2EFCD7818A2A0E1A6E8E0ED1
:1012B000E82EFED71A2EFCD7F1EC0BF01B6EC40EF5
:1012C0001B18D8B466EF09F068EF09F073EF09F066
:1012D000840E1B18D8B46FEF09F071EF09F073EFAB
:1012E00009F048EF09F043EC0CF01D0E72EC0BF026
:1012F00043EC0CF0000E0E6E000E1AEC0BF043ECFB
:101300000CF0F1EC0BF01B6EC00E1B18D8B48BEF79
:1013100009F08DEF09F098EF09F0800E1B18D8B492
:1013200094EF09F096EF09F098EF09F048EF09F013
:10133000030ED6EC0AF0350EE82EFED700F0819AA7
:10134000150E1A6EC60EE82EFED71A2EFCD700D048
:10135000818A2A0E1A6E8E0EE82EFED71A2EFCD720
:10136000F1EC0BF01B6EC40E1B18D8B4BAEF09F0E9
:10137000BCEF09F0C7EF09F0840E1B18D8B4C3EF17
:1013800009F0C5EF09F0C7EF09F09BEF09F043EC56
:101390000CF01D0E72EC0BF043EC0CF0000E0E6E18
:1013A000000E1AEC0BF043EC0CF0F1EC0BF01B6EA2
:1013B000C00E1B18D8B4DFEF09F0E1EF09F0ECEF35
:1013C00009F0800E1B18D8B4E8EF09F0EAEF09F035
:1013D000ECEF09F09BEF09F0010ED6EC0AF093EC6C
:1013E0000BF0030ED6EC0AF093EC0BF0500E106EDF
:1013F000020E116E000E126E000E136E010E4BECFB
:101400000BF0500E106E020E116E000E126E000EDA
:10141000136E030E4BEC0BF01200550E1F6ED09E98
:10142000000EF26E000E0F01386F000E396F000EC5
:101430003A6F000E3B6F000E3C6F000EC66E000E42
:101440006C6E000E796E000E786E926895689368E7
:101450009468000E456F000E476F000E426F000E3D
:10146000416F000E9C6E090E1E6E1E0E1D6EE40E68
:10147000E82EFED71D2EFCD71E2EFAD700D039EC51
:1014800009F0090E1E6E1E0E1D6EE40EE82EFED72C
:101490001D2EFCD71E2EFAD700D009EC0CF0550EED
:1014A0004EEC0CF038EC0CF0100E296E100E2A6E7B
:1014B000100E2B6E100E2C6E29C020F02AC021F0C9
:1014C0002BC022F02CC023F00A0E2D6E21C010F08C
:1014D000010E74EC0AF023C010F0030E74EC0AF055
:1014E0005CEF0AF070EF00F0176E180E186E92EFB6
:1014F0000AF0100E10607FEF0AF081EF0AF085EF1E
:101500000AF00F0E1816A7EF0AF01888A7EF0AF0D6
:101510000F0E10648EEF0AF090EF0AF085EF0AF0DC
:1015200081EF0AF01750116E126A1250000AD8B4F7
:101530009CEF0AF0A7EF0AF01150010AD8B488EF27
:101540000AF0020AD8B479EF0AF0A7EF0AF01050B7
:10155000D3EC0BF007C019F008C01AF009C01BF05B
:101560000AC01CF01CC013F01BC014F01AC015F008
:1015700019C016F01750D6EC0AF01F0E72EC0BF0E3
:10158000080E0E6E18501AEC0BF014C00EF013502B
:101590001AEC0BF016C00EF015501AEC0BF0010E01
:1015A00072EC0BF0050ED6EC0AF01200076E075035
:1015B000D8A4DDEF0AF0DFEF0AF0E5EF0AF083963A
:1015C00081848080818815EF0BF00704D8A4EBEFAD
:1015D0000AF0EDEF0AF0F3EF0AF083868194808041
:1015E000818815EF0BF0020E0718D8A4FAEF0AF065
:1015F000FCEF0AF002EF0BF08386818480908188F3
:1016000015EF0BF0030E0718D8A409EF0BF00BEF42
:101610000BF011EF0BF0838681848080819815EFA9
:101620000BF08386818480808188050EE82EFED7AA
:1016300000F012000F6E43EC0CF0000EB3EC0BF058
:10164000828400D000D000F0839200D000D000F05F
:101650000FC007F0000E41EC08F000D000D000F001
:10166000838200D000D000F0839200D000D000F040
:101670000EC007F0000E41EC08F000D000D000F0E2
:10168000838200D000D000F0828400D000D000F02F
:1016900043EC0CF01200146E200E156E13C016F001
:1016A00012C017F011C018F010C019F01450D6EC89
:1016B0000AF01F0E72EC0BF0200E0E6E000E1AECEC
:1016C0000BF017C00EF016501AEC0BF019C00EF00C
:1016D00018501AEC0BF0010E72EC0BF0050ED6EC64
:1016E0000AF012000E6E43EC0CF0000EB3EC0BF09F
:1016F000829400D000D000F0839200D000D000F09F
:101700000EC007F0000E41EC08F000D000D000F051
:10171000838200D000D000F0828400D000D000F09E
:1017200043EC0CF012001E0E72EC0BF00F0E0E6E5E
:10173000000E1AEC0BF00F0E0E6E010E1AEC0BF0F1
:10174000040E0E6E000E1AEC0BF0FF0E0E6E7F0EE6
:101750001AEC0BF0FF0E0E6E000E1AEC0BF0040EDE
:1017600072EC0BF01200076E0750D8A4BAEF0BF022
:10177000BCEF0BF0C4EF0BF03F0E94160F0E951656
:10178000FC0E9316D2EF0BF00728D8A4CAEF0BF08B
:10179000CCEF0BF0D2EF0BF0C00E9412F00E9512BE
:1017A000030E931212000F6E0F50040D010EF3245E
:1017B000F66E100EF420F76E0900F5CF0BF009005D
:1017C000F5CF0CF00900F5CF0DF00A00F5CF0EF0C3
:1017D0000BC007F00CC008F00DC009F00EC00AF0F5
:1017E0001200FF0EB3EC0BF0829400D000F0839453
:1017F00000D000D000F0000E076EFF0E41EC08F0A4
:101800000C6E838400D000F0828400D000F00C5075
:101810001200C79EC78CC698C650F00B0409C66E4E
:10182000100ECB6E000EC26E000EC16E928A9486B0
:10183000949A94889D86F28CF28EC68A120000EEED
:1018400020F00E0EEE6AE806FDE12E902E92000EBC
:10185000F86E00010DEF0AF01F0E72EC0BF0000E97
:101860000E6E010E1AEC0BF0010E72EC0BF0120072
:10187000010ED6EC0AF02CEC0CF0030ED6EC0AF0BC
:101880002CEC0CF01200F1EC0BF00D6E0DB04BEFE8
:101890000CF04DEF0CF043EF0CF01200076E07C098
:0418A000C9FF12006A
:020000040020DA
:08000000FFFFFFFFFFFFFFFF00
:020000040030CA
:0E000000FF32193CFF9181FF0FC00FE00F404F
:00000001FF
